:020000040800F2
:1000000000C00020594100080D41000811410008BE
:1000100015410008194100081D41000800000000BA
:100020000000000000000000000000002141000866
:100030002541000800000000294100082D4100086A
:10004000A9410008A9410008A9410008A9410008E8
:10005000A9410008A9410008A9410008A9410008D8
:10006000A9410008A9410008A941000891390008E8
:10007000A9410008A9410008A9410008A9410008B8
:100080003941000849410008A9410008A941000878
:10009000A9410008A9410008A9410008A941000898
:1000A000A9410008A9410008A9410008A941000888
:1000B000A9410008A9410008A9410008A941000878
:1000C000A9410008A9410008A9410008A941000868
:1000D000A9410008A9410008A9410008A941000858
:1000E000A9410008A9410008A9410008A941000848
:1000F000A9410008A9410008A9410008A941000838
:10010000A9410008A9410008A9410008A941000827
:10011000A9410008A9410008A9410008A941000817
:10012000A9410008A9410008A9410008A941000807
:1001300000000000000000000000000000000000BF
:1001400000000000000000000000000000000000AF
:10015000000000000000000000000000000000009F
:10016000000000000000000000000000000000008F
:10017000000000000000000000000000000000007F
:10018000000000000000000000000000000000006F
:10019000000000000000000000000000000000005F
:1001A000000000000000000000000000000000004F
:1001B000000000000000000000000000000000003F
:1001C000000000000000000000000000000000002F
:1001D000000000000000000000000000000000001F
:0401E0005FF8E0F1F3
:1001E80010B5054C237833B9044B13B10448AFF369
:1001F80000800123237010BD84000020000000004F
:10020800444A000808B5064B1BB106480649AFF337
:1002180000800648036813B1054B03B1984708BD31
:1002280000000000444A00088800002084000020E4
:100238000000000081F0004102E000BF83F00043AD
:1002480030B54FEA41044FEA430594EA050F08BF69
:1002580090EA020F1FBF54EA000C55EA020C7FEA2D
:10026800645C7FEA655C00F0E2804FEA5454D4EBAA
:100278005555B8BF6D420CDD2C4480EA020281EA74
:10028800030382EA000083EA010180EA020281EAAC
:100298000303362D88BF30BD11F0004F4FEA0131FE
:1002A8004FF4801C4CEA113102D0404261EB41010D
:1002B80013F0004F4FEA03334CEA133302D0524293
:1002C80063EB430394EA050F00F0A780A4F101044F
:1002D800D5F1200E0DDB02FA0EFC22FA05F2801889
:1002E80041F1000103FA0EF2801843FA05F359416F
:1002F8000EE0A5F120050EF1200E012A03FA0EFCEE
:1003080028BF4CF0020C43FA05F3C01851EBE37117
:1003180001F0004507D54FF0000EDCF1000C7EEB34
:1003280000006EEB0101B1F5801F1BD3B1F5001F72
:100338000CD349085FEA30004FEA3C0C04F1010491
:100348004FEA445212F5800F80F09A80BCF1004FBA
:1003580008BF5FEA500C50F1000041EB045141EA3C
:10036800050130BD5FEA4C0C404141EB010111F43D
:10037800801FA4F10104E9D191F0000F04BF0146E8
:100388000020B1FA81F308BF2033A3F10B03B3F1C6
:1003980020020CDA0C3208DD02F1140CC2F10C0256
:1003A80001FA0CF021FA02F10CE002F11402D8BFB4
:1003B800C2F1200C01FA02F120FA0CFCDCBF41EA80
:1003C8000C019040E41AA2BF01EB0451294330BD4F
:1003D8006FEA04041F3C1CDA0C340EDC04F114042C
:1003E800C4F1200220FA04F001FA02F340EA030003
:1003F80021FA04F345EA030130BDC4F10C04C4F149
:10040800200220FA02F001FA04F340EA0300294628
:1004180030BD21FA04F0294630BD94F0000F83F472
:10042800801306BF81F480110134013D4EE77FEA55
:10043800645C18BF7FEA655C29D094EA050F08BFA1
:1004480090EA020F05D054EA000C04BF1946104682
:1004580030BD91EA030F1EBF0021002030BD5FEAC6
:10046800545C05D14000494128BF41F0004130BDEE
:1004780014F580043CBF01F5801130BD01F0004542
:1004880045F0FE4141F470014FF0000030BD7FEAB5
:10049800645C1ABF194610467FEA655C1CBF0B46B0
:1004A800024650EA013406BF52EA033591EA030FC7
:1004B80041F4002130BD00BF90F0000F04BF0021BF
:1004C800704730B54FF4806404F132044FF00005F2
:1004D8004FF0000150E700BF90F0000F04BF00216B
:1004E800704730B54FF4806404F1320410F00045D1
:1004F80048BF40424FF000013EE700BF42004FEACC
:10050800E2014FEA31014FEA02701FBF12F07F4348
:1005180093F07F4F81F06051704792F0000F14BF45
:1005280093F07F4F704730B54FF4607401F0004589
:1005380021F0004120E700BF50EA010208BF7047E0
:1005480030B54FF000050AE050EA010208BF7047D5
:1005580030B511F0004502D5404261EB41014FF43E
:10056800806404F132045FEA915C3FF4DCAE4FF042
:1005780003025FEADC0C18BF03325FEADC0C18BF29
:10058800033202EBDC02C2F1200300FA03FC20FA7A
:1005980002F001FA03FE40EA0E0021FA02F11444C7
:1005A800C1E600BF70B54FF0FF0C4CF4E06C1CEADC
:1005B80011541DBF1CEA135594EA0C0F95EA0C0F51
:1005C80000F0DEF82C4481EA030621EA4C5123EAC4
:1005D8004C5350EA013518BF52EA033541F48011F3
:1005E80043F4801338D0A0FB02CE4FF00005E1FBA6
:1005F80002E506F00042E0FB03E54FF00006E1FBF0
:1006080003569CF0000F18BF4EF0010EA4F1FF0432
:10061800B6F5007F64F5407404D25FEA4E0E6D4172
:1006280046EB060642EAC62141EA55514FEAC52083
:1006380040EA5E504FEACE2EB4F1FD0C88BFBCF5FF
:10064800E06F1ED8BEF1004F08BF5FEA500E50F1B0
:10065800000041EB045170BD06F0004646EA010176
:1006680040EA020081EA0301B4EB5C04C2BFD4EBA8
:100678000C0541EA045170BD41F480114FF0000EA1
:10068800013C00F3AB8014F1360FDEBF002001F00F
:10069800004170BDC4F10004203C35DA0C341BDC89
:1006A80004F11404C4F1200500FA05F320FA04F05B
:1006B80001FA05F240EA020001F0004221F000418F
:1006C80010EBD37021FA04F642EB06015EEA430E02
:1006D80008BF20EAD37070BDC4F10C04C4F1200532
:1006E80000FA04F320FA05F001FA04F240EA0200E5
:1006F80001F0004110EBD37041F100015EEA430EB6
:1007080008BF20EAD37070BDC4F1200500FA05F2D5
:100718004EEA020E20FA04F301FA05F243EA020354
:1007280021FA04F001F0004121FA04F220EA020063
:1007380000EBD3705EEA430E08BF20EAD37070BDA9
:1007480094F0000F0FD101F00046400041EB010189
:1007580011F4801F08BF013CF7D041EA060195F06B
:10076800000F18BF704703F00046520043EB030325
:1007780013F4801F08BF013DF7D043EA0603704712
:1007880094EA0C0F0CEA135518BF95EA0C0F0CD01D
:1007980050EA410618BF52EA4306D1D181EA030163
:1007A80001F000414FF0000070BD50EA410606BF5D
:1007B8001046194652EA430619D094EA0C0F02D1A2
:1007C80050EA013613D195EA0C0F05D152EA0336E7
:1007D8001CBF104619460AD181EA030101F0004105
:1007E80041F0FE4141F470014FF0000070BD41F04E
:1007F800FE4141F4780170BD70B54FF0FF0C4CF428
:10080800E06C1CEA11541DBF1CEA135594EA0C0F46
:1008180095EA0C0F00F0A7F8A4EB050481EA030E93
:1008280052EA03354FEA013100F088804FEA03337A
:100838004FF0805545EA131343EA12634FEA022248
:1008480045EA111545EA10654FEA00260EF0004109
:100858009D4208BF964244F1FD0404F5407402D25B
:100868005B084FEA3202B61A65EB03055B084FEAEC
:1008780032024FF480104FF4002CB6EB020E75EBE9
:10088800030E22BFB61A754640EA0C005B084FEA11
:100898003202B6EB020E75EB030E22BFB61A75468E
:1008A80040EA5C005B084FEA3202B6EB020E75EBD9
:1008B800030E22BFB61A754640EA9C005B084FEA51
:1008C8003202B6EB020E75EB030E22BFB61A75465E
:1008D80040EADC0055EA060E18D04FEA051545EA4D
:1008E80016754FEA06164FEAC30343EA52734FEAF6
:1008F800C2025FEA1C1CC0D111F4801F0BD141EA6F
:1009080000014FF000004FF0004CB6E711F4801FD3
:1009180004BF01430020B4F1FD0C88BFBCF5E06FB3
:100928003FF6AFAEB5EB030C04BFB6EB020C5FEAC3
:10093800500C50F1000041EB045170BD0EF0004E18
:100948004EEA113114EB5C04C2BFD4EB0C0541EA4A
:10095800045170BD41F480114FF0000E013C90E647
:1009680045EA060E8DE60CEA135594EA0C0F08BF0B
:1009780095EA0C0F3FF43BAF94EA0C0F0AD150EA0A
:1009880001347FF434AF95EA0C0F7FF425AF10469D
:1009980019462CE795EA0C0F06D152EA03353FF4C5
:1009A800FDAE1046194622E750EA410618BF52EA42
:1009B80043067FF4C5AE50EA41047FF40DAF52EA16
:1009C80043057FF4EBAE12E74FF0FF3C06E000BFB3
:1009D8004FF0010C02E000BF4FF0010C4DF804CDC0
:1009E8004FEA410C7FEA6C5C4FEA430C18BF7FEA80
:1009F8006C5C1BD001B050EA410C0CBF52EA430CAE
:100A080091EA030F02BF90EA020F0020704710F12D
:100A1800000F91EA030F58BF994208BF90422CBFBC
:100A2800D8176FEAE37040F0010070474FEA410CB5
:100A38007FEA6C5C02D150EA013C07D14FEA430CD3
:100A48007FEA6C5CD6D152EA033CD3D05DF8040B44
:100A5800704700BF8446104662468C461946634676
:100A680000E000BF01B5FFF7B7FF002848BF10F14D
:100A7800000F01BD4DF808EDFFF7F4FF0CBF012092
:100A880000205DF808FB00BF4DF808EDFFF7EAFF0E
:100A980034BF012000205DF808FB00BF4DF808EDC9
:100AA800FFF7E0FF94BF012000205DF808FB00BFBE
:100AB8004DF808EDFFF7CEFF94BF012000205DF848
:100AC80008FB00BF4DF808EDFFF7C4FF34BF012055
:100AD80000205DF808FB00BF4FEA4102B2F1E04395
:100AE80024BFB3F5001CDCF1FE5C0DD901F0004C0D
:100AF8004FEAC0024CEA5070B2F1004F40EB83005D
:100B080008BF20F00100704711F0804F21D113F188
:100B18003872BCBF01F00040704741F480114FEAC1
:100B28005252C2F11802C2F1200C10FA0CF320FA4A
:100B380002F018BF40F001004FEAC1234FEAD32367
:100B480003FA0CFC40EA0C0023FA02F34FEA4303D1
:100B5800CCE77FEA625307D150EA01331EBF4FF05A
:100B6800FE4040F44000704701F0004040F0FE4075
:100B780040F40000704700BF80F0004002E000BF72
:100B880081F0004142001FBF5FEA410392EA030F70
:100B98007FEA226C7FEA236C6AD04FEA1262D2EBBA
:100BA8001363C1BFD218414048404140B8BF5B42BF
:100BB800192B88BF704710F0004F40F4000020F058
:100BC8007F4018BF404211F0004F41F4000121F06E
:100BD8007F4118BF494292EA030F3FD0A2F10102B8
:100BE80041FA03FC10EB0C00C3F1200301FA03F1F6
:100BF80000F0004302D5494260EB4000B0F5000F19
:100C080013D3B0F1807F06D340084FEA310102F1D7
:100C18000102FE2A51D2B1F1004F40EBC25008BF89
:100C280020F0010040EA03007047490040EB000053
:100C380010F4000FA2F10102EDD1B0FA80FCACF182
:100C4800080CB2EB0C0200FA0CF0AABF00EBC25081
:100C580052421843BCBFD0401843704792F0000F6F
:100C680081F4000106BF80F400000132013BB5E7C2
:100C78004FEA41037FEA226C18BF7FEA236C21D038
:100C880092EA030F04D092F0000F08BF084670479D
:100C980090EA010F1CBF0020704712F07F4F04D16B
:100CA800400028BF40F00040704712F100723CBF7E
:100CB80000F50000704700F0004343F0FE4040F4A8
:100CC800000070477FEA226216BF08467FEA236366
:100CD8000146420206BF5FEA412390EA010F40F451
:100CE800800070474FF0000304E000BF10F000439D
:100CF80048BF40425FEA000C08BF704743F0964384
:100D080001464FF000001CE050EA010208BF70479E
:100D18004FF000030AE000BF50EA010208BF704725
:100D280011F0004302D5404261EB41015FEA010C3A
:100D380002BF84460146002043F0B64308BFA3F132
:100D48008053A3F50003BCFA8CF2083AA3EBC25314
:100D580010DB01FA02FC634400FA02FCC2F1200233
:100D6800BCF1004F20FA02F243EB020008BF20F06A
:100D78000100704702F1200201FA02FCC2F12002D0
:100D880050EA4C0021FA02F243EB020008BF20EAC5
:100D9800DC7070474FF0FF3C06E000BF4FF0010CDD
:100DA80002E000BF4FF0010C4DF804CD4FEA4002BD
:100DB8004FEA41037FEA226C18BF7FEA236C11D007
:100DC80001B052EA530C18BF90EA010F58BFB2EBBA
:100DD800030088BFC81738BF6FEAE17018BF40F03A
:100DE800010070477FEA226C02D15FEA402C05D1EE
:100DF8007FEA236CE4D15FEA412CE1D05DF8040B73
:100E0800704700BF844608466146FFE70FB5FFF705
:100E1800C9FF002848BF10F1000F0FBD4DF808EDBD
:100E2800FFF7F4FF0CBF012000205DF808FB00BFAE
:100E38004DF808EDFFF7EAFF34BF012000205DF808
:100E480008FB00BF4DF808EDFFF7E0FF94BF012055
:100E580000205DF808FB00BF4DF808EDFFF7D2FF52
:100E680094BF012000205DF808FB00BF4DF808ED95
:100E7800FFF7C8FF34BF012000205DF808FB00BF62
:100E880082B0084B1A68084BA3FB02135B0A00FBED
:100E980003F0019000BF019B5A1E0192002BF9D16B
:100EA80002B0704700000020D34D62102DE9F041D8
:100EB80082B00446036813F0010F6ED0A24B5B6842
:100EC80003F00C03042B0AD09F4B5B6803F00C0360
:100ED800082B0DD19C4B5B6813F4803F08D09A4BCC
:100EE8001B6813F4003F58D06368002B55D1C1E14B
:100EF8006368B3F5803F08D103F1804303F5883375
:100F08001A6842F480321A6026E063B903F180431C
:100F180003F504331A6822F480321A601A6822F43E
:100F280080221A6018E0B3F5A02F0CD103F180439A
:100F3800A3F53C331A6842F480221A601A6842F416
:100F480080321A6008E0804B1A6822F480321A60F6
:100F58001A6822F480221A6063687BB101F03AF8BB
:100F68000646794D05E001F035F8801B642800F24B
:100F780083812B6813F4003FF5D00EE001F02AF8C6
:100F88000646714D05E001F025F8801B642800F243
:100F980075812B6813F4003FF5D1236813F0020F15
:100FA80050D0694B5B6813F00C0F0AD0664B5B6836
:100FB80003F00C03082B16D1634B5B6813F4803FD6
:100FC80011D1614B1B6813F0020F03D02369012B69
:100FD80040F056815C4B196821F0F801626941EADA
:100FE800C2021A602EE02369D3B10122574B1A605E
:100FF80000F0F0FF0646544D05E000F0EBFF801BC3
:10100800022800F23F812B6813F0020FF5D04E4BF7
:10101800196821F0F801626941EAC2021A6011E018
:1010280000224A4B1A6000F0D5FF0646464D05E0FF
:1010380000F0D0FF801B022800F226812B6813F0F5
:10104800020FF5D1236813F0080F29D0A369ABB1BB
:1010580001223F4B1A6000F0BDFF06463A4D05E0FD
:1010680000F0B8FF801B022800F210816B6A13F0B1
:10107800020FF5D00120FFF703FF11E00022344BE7
:101088001A6000F0A7FF06462F4D05E000F0A2FF0A
:10109800801B022800F2FC806B6A13F0020FF5D166
:1010A800236813F0040F00F08C80274BDB6913F0E2
:1010B800805F0BD1244BDA6942F08052DA61DB6938
:1010C80003F080530193019B012500E00025214B8B
:1010D8001B6813F4807F13D11E4B1A6842F4807288
:1010E8001A6000F077FF07461A4E05E000F072FF1D
:1010F800C01B642800F2CE80336813F4807FF5D0DB
:10110800E368012B05D1104B1A6A42F001021A62FA
:101118002BE063B903F1804303F504331A6A22F024
:1011280001021A621A6A22F004021A621DE0052BF3
:1011380012D1054B1A6A42F004021A621A6A42F086
:1011480001021A6211E000BF001002400000424292
:101158008004424200700040574B1A6A22F0010294
:101168001A621A6A22F004021A62E36893B100F064
:1011780031FF8046504E41F2883706E000F02AFFE2
:10118800C8EB0000B84200F28780336A13F0020F00
:10119800F4D010E000F01EFF8046474E41F2883739
:1011A80005E000F017FFC8EB0000B84276D8336AB4
:1011B80013F0020FF5D125B13F4BDA6922F08052C6
:1011C800DA61E369002B6BD03B4A526802F00C02EB
:1011D800082A67D0022B3AD10022384B1A6000F057
:1011E800F9FE0646344D04E000F0F4FE801B0228A8
:1011F8005AD82B6813F0007FF6D1236AB3F5803FE5
:1012080009D103F1804303F58833596821F400318B
:10121800A2680A435A60284B596821F47411206A5D
:10122800626A02430A435A600122244B1A6000F0A2
:10123800D1FE0546204C04E000F0CCFE401B0228FD
:1012480034D8236813F0007FF6D0002031E0002264
:101258001A4B1A6000F0BEFE0546174C04E000F079
:10126800B9FE401B022823D8236813F0007FF6D16B
:1012780000201EE001201CE003201AE0032018E0F3
:10128800012016E0032014E0032012E0032010E000
:1012980003200EE003200CE003200AE0032008E00E
:1012A800002006E0012004E0032002E0032000E023
:1012B800032002B0BDE8F081001002406000424205
:1012C80030B486B0164D02AC28686968AA68EB6825
:1012D8000FC42B8AADF80430124B5B6803F00C0284
:1012E800082A19D1C3F3834206A90A4412F8102C1C
:1012F80013F4803F0CD00B4B5B68C3F340430B44A3
:1013080013F8143C0848B0FBF3F002FB00F004E0CB
:10131800064800FB02F000E0034806B030BC704706
:101328005C4A00080010024000127A0000093D00E3
:101338002DE9F04104460D46614B1B6803F0070395
:101348008B420BD25E4B1A6822F007020A431A60DE
:101358001B6803F007038B4240F09980236813F061
:10136800020F06D0574B596821F0F001A2680A43D2
:101378005A60236813F0010F50D06368012B05D120
:10138800504A126812F4003F0DD183E0022B05D1B8
:101398004C4A126812F0007F05D17EE0494A126873
:1013A80012F0020F7CD0474A516821F003010B4329
:1013B800536000F00FFE06466368012B0FD105E06D
:1013C80000F008FE801B404503D96CE03D4F41F218
:1013D80088387B6803F00C03042BF1D11EE0022B44
:1013E80015D105E000F0F6FD801B404503D95DE00E
:1013F800344F41F288387B6803F00C03082BF1D195
:101408000CE000F0E7FD801B404503D951E02D4F6B
:1014180041F288387B6813F00C0FF2D1284B1B6817
:1014280003F00703AB420AD9254B1A6822F00702DA
:101438002A431A601B6803F00703AB423CD12368B8
:1014480013F0040F06D01F4B596821F4E061E268DD
:101458000A435A60236813F0080F07D0194B5A68DB
:1014680022F46052216942EAC1025A60FFF728FF5C
:10147800144B5B68C3F30313134AD35CD840134A75
:101488001060002000F076FD0020BDE8F08101200A
:10149800BDE8F0810120BDE8F0810120BDE8F081C0
:1014A8000120BDE8F0810320BDE8F0810320BDE8FC
:1014B800F0810320BDE8F0810120BDE8F08100BF84
:1014C8000020024000100240704A0008000000207E
:1014D800014B1868704700BF0000002008B5FFF7EF
:1014E800F7FF044B5B68C3F30223034AD35CD8407D
:1014F80008BD00BF00100240804A000808B5FFF789
:10150800E7FF044B5B68C3F3C223034AD35CD840AC
:1015180008BD00BF00100240804A000830B4036ACA
:1015280023F001030362026A4368856925F07305A5
:101538000C68254322F002028C682243104CA0421A
:1015480003D004F50064A04205D122F00802CC685B
:10155800224322F004020A4CA04203D004F500649E
:10156800A04205D123F440734C6923438C6923437B
:10157800436085614B684363026230BC704700BFBB
:10158800002C014030B4036A23F480730362026ABA
:101598004368C56925F073050C68254322F4007279
:1015A8008C6842EA0422124CA04203D004F500647D
:1015B800A04206D122F40062CC6842EA042222F456
:1015C80080620B4CA04203D004F50064A04207D10E
:1015D80023F440534C6943EA04138C6943EA041327
:1015E8004360C5614B68C363026230BC704700BF8B
:1015F800002C014030B4036A23F480530362056A67
:101608004368C26922F4E6420C6842EA042425F4DD
:1016180000558A6845EA0232094DA84203D005F50B
:101628000065A84204D123F480434D6943EA851339
:101638004360C4614B680364026230BC704700BFFA
:10164800002C014010B4036A046A24F00104046207
:10165800846924F0F00444EA021223F00A031943CF
:10166800826101625DF8044B704700BF10B4036AE1
:1016780023F0100303628469036A24F4704444EA83
:10168800023223F0A00343EA0111826101625DF88E
:10169800044B704710B4846824F47F4442EA03235F
:1016A80019430C4384605DF8044B704710B50B4632
:1016B8000268946824F070044968214321F0070403
:1016C8001968214391605A68502A1FD002D8402ACD
:1016D8000BD010BD602A1FD0702A22D10068D968AB
:1016E8009A681B69FFF7D6FF10BD0268116A146A71
:1016F80024F0010414620268946924F0F0041B6960
:1017080044EA031393610368196210BD006899687D
:101718001A69FFF797FF10BD006899681A69FFF703
:10172800A5FF10BD704700BF38B5044690F83C309F
:10173800012B17D0012580F83C50022380F83D305A
:10174800FFF7B4FF2368DA6822F04002DA60236802
:10175800DA6822F48042DA6084F83D50002084F888
:101768003C0038BD022038BD0368244A904212D09C
:1017780002F5006290420ED0B0F1804F0BD0A2F576
:101788009832904207D002F58062904203D002F569
:101798008062904203D123F070034A681343174ACA
:1017A800904212D002F5006290420ED0B0F1804F04
:1017B8000BD0A2F59832904207D002F58062904291
:1017C80003D002F58062904203D123F44073CA68C3
:1017D800134323F080034A691A4302608B68C3628B
:1017E8000B688362054B984203D003F50063984267
:1017F80001D10B690363012343617047002C014049
:1018080010B50446B0B190F83D3013F0FF0F04D185
:10181800002380F83C30FFF785FF022384F83D3031
:10182800214651F8040BFFF79FFF012384F83D3050
:10183800002010BD012010BD30B4036A23F010034E
:101848000362026A4368856925F4E6450C6845EA3F
:10185800042522F020028C6842EA0412114CA042AE
:1018680003D004F50064A04206D122F08002CC68BF
:1018780042EA041222F040020A4CA04203D004F5C6
:101888000064A04207D123F440634C6943EA84030F
:101898008C6943EA8403436085614B688363026211
:1018A80030BC7047002C014038B504460D4690F80E
:1018B8003C30012B64D0012380F83C30022380F8AF
:1018C8003D300C2A55D8DFE802F0075454541A5416
:1018D80054542E54545441000068FFF71FFE2368E7
:1018E8009A6942F008029A6123689A6922F0040210
:1018F8009A61236899692A690A439A6139E00068FC
:10190800FFF79AFF23689A6942F400629A61236894
:101918009A6922F480629A6123689A69296942EA7D
:1019280001229A6125E00068FFF72CFE2368DA6936
:1019380042F00802DA612368DA6922F00402DA6107
:101948002368D9692A690A43DA6112E00068FFF757
:1019580051FE2368DA6942F40062DA612368DA69C1
:1019680022F48062DA612368DA69296942EA01228D
:10197800DA61012384F83D30002084F83C0038BD4A
:10198800022038BD10B401238B40046A24EA030303
:101998000362036A8A40134303625DF8044B70478D
:1019A80010B5044600680122FFF7ECFF23680C4AD3
:1019B800934205D002F50062934203D1012202E06E
:1019C800012200E000221AB15A6C42F400425A6423
:1019D80023681A6842F001021A60002010BD00BF97
:1019E800002C014010B404238B40046A24EA03034A
:1019F8000362036A8A40134303625DF8044B70472D
:101A080010B5044600680422FFF7ECFF23685A6CFF
:101A180042F400425A6423681A6842F001021A60CC
:101A2800002010BD90F83C30012B22D0012380F813
:101A38003C30CB6823F440728B68134323F48062F4
:101A48004B681A4322F400620B681A4322F480524E
:101A58000B691A4322F400524B691A43896922F42C
:101A680040420A4303685A64002380F83C30184611
:101A780070470220704700BF30B490F83C30012B0B
:101A880020D0012380F83C30022280F83D200268F3
:101A9800546824F070045460026855680C682C433C
:101AA80054600268946824F0800494600268946822
:101AB80049682143916080F83D30002380F83C302C
:101AC800184600E0022030BC704700BF10B490F800
:101AD8002430012B21D0012380F8243003689A6830
:101AE80012F0010F0FD10F4A926812F0010F0AD1BC
:101AF8000D4A934207D15C6824F470240A68224393
:101B08005A60002304E0836A43F0200383620123C0
:101B1800002280F82420184600E002205DF8044BDB
:101B2800704700BF002801400024014000F0070072
:101B3800064AD36823F4E0631B041B0C43EA002322
:101B480043F0BF6343F40033D360704700ED00E017
:101B580030B4164BDB68C3F30223C3F10705042D29
:101B680028BF04251C1D062C01D9033B00E00023D7
:101B7800012404FA05F5013D2940994004FA03F3CC
:101B8800013B1A400A43002806DA00F00F00120150
:101B9800D2B2074B1A5407E01201D2B200F16040EA
:101BA80000F5614080F8002330BC704700ED00E08C
:101BB80014ED00E0420900F01F00012303FA00F0D1
:101BC800014B43F82200704700E100E00138B0F112
:101BD800807F0AD2064B5860F021064A82F823100B
:101BE8000020986007221A6070470120704700BFE4
:101BF80010E000E000ED00E0042805D1054B1A686C
:101C080042F004021A607047024B1A6822F004027C
:101C18001A60704710E000E0704700BF08B5FFF792
:101C2800FBFF08BD2DE9F00F82B000252B46784F49
:101C3800DFF8E4C1DFF8E481764C8146E1E0012673
:101C48009E400A683240B24240F0DA804868122862
:101C58002FD00BD8022829D003D868B3012820D068
:101C680039E0032834D011281DD034E0DFF8B0A1C2
:101C7800504521D008D8AAF5801A50451CD00AF53D
:101C8800803A504527D117E0DFF898A1504513D086
:101C98000AF5803A50450FD0AAF5801A50451AD156
:101CA8000AE0CD6817E0CD68043514E0CD68083542
:101CB80011E0CD680C350EE0886858B1012803D1D1
:101CC800C9F81060082506E0C9F81460082502E084
:101CD800002500E00425FF2A01D8484601E009F163
:101CE8000400FF2A01D89E0002E0A3F10806B6000E
:101CF800D0F800B04FF00F0A0AFA06FA2BEA0A0ADF
:101D080005FA06F64AEA06060660486810F0805F9B
:101D180076D0B86940F00100B861B86900F00100F8
:101D2800019001989808861C5CF826B003F0030619
:101D3800B6004FF00F0A0AFA06FA2BEA0A0AC1455A
:101D480025D0DFF8E4B0D9451ED00BF5806BD94516
:101D580017D00BF5806BD94510D00BF5806BD945A2
:101D680009D00BF5806BD94502D14FF0050B10E077
:101D78004FF0060B0DE04FF0040B0AE04FF0030B99
:101D880007E04FF0020B04E04FF0010B01E04FF0C9
:101D9800000B0BFA06F646EA0A0602304CF82060F9
:101DA800486810F4803F03D020681043206003E0A7
:101DB800206820EA02002060486810F4003F03D041
:101DC80060681043606003E0606820EA02006060B9
:101DD800486810F4801F03D0A0681043A06003E097
:101DE800A06820EA0200A060486810F4001F03D031
:101DF800E0680243E26003E0E06820EA0202E26091
:101E080001330F2B7FF61BAF02B0BDE8F00F704710
:101E18000010024000040140000001400008014099
:101E28000000211000003110000C014083680B42B3
:101E380001D0012070470020704700BF0AB101613E
:101E48007047090401617047C3685940C160704711
:101E58002DE9F04182B00446036813F0010F60D009
:101E6800404BDB6913F0805F0BD13E4BDA6942F0DF
:101E78008052DA61DB6903F080530193019B0127EB
:101E880000E00027384B1B6813F4807F12D1364BD3
:101E98001A6842F480721A6000F09CF80646324DC7
:101EA80004E000F097F8801B642852D82B6813F4DC
:101EB800807FF6D02B4B1B6A13F4407325D06268E1
:101EC80002F440729A4220D0264A136A23F44070E2
:101ED800264901250D6000250D60106213F0010FE1
:101EE80013D000F077F8804605F1804505F50435F4
:101EF80041F2883605E000F06DF8C8EB0000B0420A
:101F080029D82B6A13F0020FF5D0164B196A21F461
:101F1800407162680A431A621FB1DA6922F080527E
:101F2800DA61236813F0020F06D00E4B596821F4CA
:101F38004041A2680A435A60236813F0100F0CD07E
:101F4800084B5A6822F4800261690A435A600020EB
:101F580004E0032002E0032000E0002002B0BDE816
:101F6800F08100BF0010024000700040400442426F
:101F7800704700BF10B50446074B1868074BA3FB12
:101F880000208009FFF722FE4FF0FF302146002293
:101F9800FFF7DEFD002010BD00000020D34D6210C9
:101FA80008B5074B1A6842F010021A600320FFF7C1
:101FB800BDFD0020FFF7DEFFFFF7DAFF002008BDB8
:101FC80000200240024B1A6801321A60704700BFB5
:101FD800E0000020014B1868704700BFE0000020B7
:101FE80030B583B00190FFF7F5FF0546019CB4F1C9
:101FF800FF3F00D00134FFF7EDFF401BA042FAD3AA
:1020080003B030BD704700BF30B482B000230193E5
:1020180090F82430012B00F08980012380F82430C7
:102028004B68062B0ED80268546B03EB8303053B01
:102038001F259D4024EA05050C6804FA03F32B4389
:1020480053631EE00C2B0ED80268146B03EB83035A
:10205800233B1F259D4024EA05050C6804FA03F379
:102068002B4313630DE00268D46A03EB8303413BFF
:102078001F259D4024EA05050C6804FA03F32B4349
:10208800D3620B68092B0ED90268D46803EB4303AB
:102098001E3B07259D4024EA05058C6804FA03F3D6
:1020A8002B43D3600CE00268146903EB4303072554
:1020B8009D4024EA05058C6804FA03F32B43136159
:1020C8000B68103B012B27D803681A4A93421DD18D
:1020D8009A6812F4000F21D19A6842F400029A60BB
:1020E8000B68102B1CD1144B1A68144BA3FB02135A
:1020F8009B0C03EB83035B00019302E0019B013B14
:102108000193019B002BF9D100220AE0836A43F076
:1021180020038362012204E0002202E0002200E0A2
:102128000022002380F82430104600E0022002B08C
:1021380030BC7047002401400000002083DE1B43B0
:1021480030B583B004460023019303689A6812F0FF
:10215800010F2ED19A6842F001029A60164B1A6854
:10216800164BA3FB02139B0C019302E0019B013B5E
:102178000193019B002BF9D1FFF72CFF054611E0D5
:10218800FFF728FF401B02280CD9A36A43F010036D
:10219800A362E36A43F00103E362002384F8243076
:1021A800012007E023689B6813F0010FE8D00020A6
:1021B80000E0002003B030BD0000002083DE1B4398
:1021C80010B5044690F82430012B6ED0012380F816
:1021D8002430FFF7B5FF0246002861D1A36A23F433
:1021E800407323F0010343F48073A36223683049EA
:1021F8008B4205D1A1F58061496811F4702F0ED189
:10220800A16A21F48011A162596811F4806F1CD071
:10221800A16A21F4405141F48051A16215E0A16AFC
:1022280041F48011A16223498B4203D001F58061FA
:102238008B420AD11F49496811F4806F05D0A16A01
:1022480021F4405141F48051A162A16A11F4805FE8
:1022580004D0E16A21F00601E16201E00021E162B7
:10226800002184F824106FF002011960236899682E
:1022780001F46021B1F5602F0DD10D498B4205D1D4
:10228800A1F58061496811F4702F04D1996841F46F
:10229800A001996007E0996841F48011996002E013
:1022A800002384F82430104610BD022010BD00BF62
:1022B800002801400024014038B5044603689A68A4
:1022C80012F0010F1DD09A6822F001029A60FFF700
:1022D80081FE05460EE0FFF77DFE401B022809D966
:1022E800A36A43F01003A362E36A43F00103E362C5
:1022F800012038BD23689B6813F0010FEBD1002043
:1023080038BD002038BD00BF70B50446002800F075
:102318008680836A23B9C36280F82430FFF772FE8F
:102328002046FFF7C9FFA36A13F0100F71D10028E8
:102338006FD1A36A23F4885323F0020343F0020306
:10234800A36261682368374A934206D1E269B2F50D
:10235800402F03D14FF4002200E0E2690A43E56808
:1023680042EA4502A168B1F5807F04D0012905D170
:102378004FF4807103E04FF4807100E0002166693A
:10238800012E0FD135B9A569013D41EA453141F426
:10239800006107E0A56A45F02005A562E56A45F0F9
:1023A8000105E5625D6825F469452943596021689E
:1023B8008D681D4B2B4013438B60A368B3F5807F5A
:1023C80001D0012B03D12569013D2D0500E0002531
:1023D8002368D96A21F470012943D962236899686E
:1023E800124B0B409A4208D10023E362A36A23F000
:1023F800030343F00103A36270BDA36A23F0120331
:1024080043F01003A362E36A43F00103E36201208F
:1024180070BDA36A43F01003A362012070BD0120C0
:1024280070BD00BF003C0140FDF7E1FFFE0E1FFF3D
:102438000368DA6822F0C002DA60202380F83930B5
:10244800704700BF0368DA6822F49072DA600368A4
:102458005A6922F001025A61202380F83A30704705
:102468002DE9F84304460368196921F44051C2680C
:102478000A431A61826803691A43436942EA0301FD
:102488000268D36823F4B05323F00C030B43D360E2
:102498000368596921F4407182690A435A610668E0
:1024A8005A4B9E4258D1FFF729F800EB800000EB09
:1024B800800063689B00B0FBF3F9554DA5FB092923
:1024C8004FEA59194FEA0919FFF718F800EB80008D
:1024D80000EB800063689B00B0FBF3F8FFF70EF891
:1024E80000EB800000EB800063689B00B0FBF3F317
:1024F800A5FB03235B09642707FB13884FEA081829
:1025080008F13208A5FB08384FEA581808F0F00817
:10251800C844FEF7F3FF00EB800000EB800063681F
:102528009B00B0FBF3F9FEF7E9FF00EB800000EB3E
:10253800800063689B00B0FBF3F3A5FB03235B09F2
:1025480007FB13973F013237A5FB0735C5F3431542
:102558004544B560BDE8F883FEF7C0FF00EB800096
:1025680000EB800063689B00B0FBF3F9284DA5FBE6
:1025780009294FEA59194FEA0919FEF7AFFF00EB8D
:10258800800000EB800063689B00B0FBF3F8FEF767
:10259800A5FF00EB800000EB800063689B00B0FBA8
:1025A800F3F0A5FB00304009642707FB10884FEAC9
:1025B800081808F13208A5FB08284FEA581808F04F
:1025C800F008C844FEF78AFF00EB800000EB8000AB
:1025D80063689B00B0FBF3F9FEF780FF00EB800017
:1025E80000EB800063689B00B0FBF3F0A5FB0030B4
:1025F800400907FB10973F013237A5FB0725C5F3B4
:1026080043154544B560BDE8F88300BF0038014074
:102618001F85EB51704700BF10B5044658B390F8BA
:10262800393013F0FF0F04D1002380F83830FFF75A
:10263800F1FF242384F839302368DA6822F4005241
:10264800DA602046FFF70CFF23681A6922F49042EB
:102658001A6123685A6922F02A025A612368DA68E3
:1026680042F40052DA600020E063202384F8393015
:1026780084F83A3010BD012010BD00BF38B50446BB
:10268800134690F83900C0B220282FD100292FD046
:10269800002A2FD094F83820012A2DD0012284F85E
:1026A80038202162A384E3840025E563212284F88D
:1026B8003920226B11489062226B1148D062226B3C
:1026C80010481063226B55632268206B043200F0B7
:1026D80091F923686FF040021A6084F83850236833
:1026E8005A6942F080025A61284638BD022038BD36
:1026F800012038BD012038BD022038BDC12700089F
:10270800F52700085928000870B582B004460D4620
:10271800134690F83A00C0B220283BD100293BD09C
:10272800002A3BD094F83820012A39D0012284F8B5
:102738003820A162A3850026E663222284F83A2085
:10274800626B19499162626B1849D162626B1849D0
:102758001163626B56632168606B04312A4600F08E
:1027680049F9019623681A6801925A680192019AF8
:1027780084F83860DA6842F48072DA6023685A694B
:1027880042F001025A6123685A6942F040025A61D4
:10279800304606E0022004E0012002E0012000E0CB
:1027A800022002B070BD00BF0528000849280008B3
:1027B80059280008704700BF08B5436A02681268C4
:1027C80012F0200F0CD10022DA841A68516921F026
:1027D800800151611B68DA6842F04002DA6008BD86
:1027E8001846FFF7E7FF08BD704700BF08B5406A05
:1027F800FFF7FAFF08BD00BF704700BF08B5436A7E
:102808000268126812F0200F13D10022DA851A68C4
:10281800D16821F48071D1601A68516921F00101F1
:1028280051611A68516921F040015161202283F8F1
:102838003A201846FFF7E0FF08BD00BF704700BF09
:1028480008B5406AFFF7FAFF08BD00BF704700BF30
:1028580010B5446A23685B6903F0800294F8393044
:10286800DBB2212B05D122B10023E3842046FFF7F8
:10287800DFFD23685B6903F0400294F83A30DBB26D
:10288800222B05D122B10023E3852046FFF7DAFD8C
:10289800E36B43F01003E3632046FFF7D7FF10BD57
:1028A800704700BF10B504460368DA6822F49072D6
:1028B800DA6003685A6922F001025A6103685A69AA
:1028C80012F0400F17D05A6922F040025A61436B48
:1028D8004BB10D4A5A63406B00F0C6F890B1606B7B
:1028E800436B98470EE00023C385202380F83A30D5
:1028F800FFF7D6FF06E00023C385202380F83A308F
:10290800FFF7CEFF002010BD1529000808B5406A62
:102918000023C385202380F83A30FFF7C1FF08BDA4
:1029280070B4C46B056C012606FA05F56560046889
:1029380063604368102B04D103689A600368D96008
:1029480003E0036899600368DA6070BC704700BFF1
:1029580010B4034600283CD0026820498A420AD8AD
:102968001F4911441F4AA2FB010109098900196482
:102978001D4ADA6309E01D4911441A4AA2FB010104
:102988000909890019641A4ADA63022283F82120A6
:1029980019680A6822F47F5222F030025C6898684D
:1029A8000443D86804431869044358690443986980
:1029B8000443D869204302430A6000209862D86221
:1029C800186358639863012283F8212083F8200054
:1029D80000E001205DF8044B704700BF0704024087
:1029E800F8FFFDBFCDCCCCCC00000240F8FBFDBF0A
:1029F8000004024038B5044690F82000012831D080
:102A0800012084F8200094F82100012825D1022013
:102A180084F821000020A0632068056825F00105DE
:102A280005602046FFF77CFFE36A2BB123681A682C
:102A380042F00E021A6009E023681A6822F00402C4
:102A48001A6023681A6842F00A021A6023681A6832
:102A580042F001021A60002038BD002384F82030BB
:102A6800022038BD022038BD08B590F82130022B6D
:102A780003D004238363012008BD03681A6822F089
:102A88000E021A6003681A6822F001021A600368CD
:102A98004B4A934243D9783A93423CD014329342FA
:102AA80037D01432934231D0143293422BD014329F
:102AB800934225D0143293421FD01432934219D036
:102AC80002F56272934213D0143293420ED014323C
:102AD800934208D01432934202D14FF480521BE043
:102AE8004FF4803218E04FF4807215E0102213E0A2
:102AF800012211E04FF080720EE04FF480120BE0DB
:102B08004FF4803208E04FF4805205E04FF48072B1
:102B180002E0102200E001222A4B5A6042E02A4AD1
:102B280093423CD01432934237D01432934231D07E
:102B3800143293422BD01432934225D0143293424C
:102B48001FD01432934219D002F56272934213D007
:102B5800143293420ED01432934208D01432934266
:102B680002D14FF480521BE04FF4803218E04FF44A
:102B7800807215E0102213E0012211E04FF08072FC
:102B88000EE04FF480120BE04FF4803208E04FF46F
:102B9800805205E04FF4807202E0102200E001222A
:102BA8000A4B5A60012380F82130002380F8203036
:102BB800436B13B19847002008BD002008BD00BF33
:102BC8008000024000040240080002400000024069
:102BD80038B5C36B1B6801680C68026C0425954006
:102BE8001D4200F09D8014F0040F00F099800B68DE
:102BF80013F0200F03D10B6823F004030B60036864
:102C0800A84A934243D9783A93423CD0143293422B
:102C180037D01432934231D0143293422BD014322D
:102C2800934225D0143293421FD01432934219D0C4
:102C380002F56272934213D0143293420ED01432CA
:102C4800934208D01432934202D14FF480421BE0E1
:102C58004FF4802218E04FF4806215E0402213E020
:102C6800042211E04FF080620EE04FF480020BE086
:102C78004FF4802208E04FF4804205E04FF4806270
:102C880002E0402200E00422874B5A6042E0874A73
:102C980093423CD01432934237D01432934231D00D
:102CA800143293422BD01432934225D014329342DB
:102CB8001FD01432934219D002F56272934213D096
:102CC800143293420ED01432934208D014329342F5
:102CD80002D14FF480421BE04FF4802218E04FF4F9
:102CE800806215E0402213E0042211E04FF0806278
:102CF8000EE04FF480020BE04FF4802208E04FF41E
:102D0800804205E04FF4806202E0402200E00422A5
:102D1800674B5A60C36A002B00F0C380984738BDE0
:102D2800022595401D4200F0A18014F0020F00F02A
:102D38009D800B6813F0200F06D10B6823F00A035F
:102D48000B60012380F821300368564A934243D927
:102D5800783A93423CD01432934237D0143293429B
:102D680031D0143293422BD01432934225D01432EE
:102D780093421FD01432934219D002F562729342E3
:102D880013D0143293420ED01432934208D0143226
:102D9800934202D14FF400521BE04FF4003218E086
:102DA8004FF4007215E0202213E0022211E04FF0E8
:102DB80000720EE04FF400120BE04FF4003208E00E
:102DC8004FF4005205E04FF4007202E0202200E0C8
:102DD8000222354B5A6042E0344A93423CD01432C6
:102DE800934237D01432934231D0143293422BD0CD
:102DF8001432934225D0143293421FD01432934296
:102E080019D002F56272934213D0143293420ED055
:102E18001432934208D01432934202D14FF4005234
:102E28001BE04FF4003218E04FF4007215E0202246
:102E380013E0022211E04FF000720EE04FF400128E
:102E48000BE04FF4003208E04FF4005205E04FF475
:102E5800007202E0202200E00222154B5A60002393
:102E680080F82030836AE3B1984738BD082505FA11
:102E780002F21A4215D014F0080F12D00B6823F092
:102E88000E030B60C26B016C012303FA01F1516060
:102E9800836380F82130002380F82030036B03B16E
:102EA800984738BD800002400004024008000240F4
:102EB800000002400F4B1A6842F001021A6059687C
:102EC8000D4A0A405A601A6822F0847222F480324D
:102ED8001A601A6822F480221A605A6822F4FE02E4
:102EE8005A604FF41F029A604FF00062034B9A60D9
:102EF800704700BF001002400000FFF800ED00E03E
:102F080030B597B01F4BDA6942F48022DA61DA698A
:102F180002F480220092009A5A6942F001025A6132
:102F28005B6903F001030193019B174D06954FF46C
:102F3800E13307930024089409940A9408230B9317
:102F48000C940D9406A8FFF767FB6B6943F08003A8
:102F58006B614FF48063029301230493022303936C
:102F680003230593094802A9FEF75CFE084B1C6081
:102F7800084A9A605C6090221A6070221C3B5A6072
:102F880017B030BD0010024000480040000C01405E
:102F98001C00024004480040F0B589B03E4EF36979
:102FA80043F40033F361F36903F400330093009BA7
:102FB800102005210622FEF7CBFD1020FEF7FAFDB2
:102FC800112005210722FEF7C3FD1120FEF7F2FDAF
:102FD800324D334B2B604FF4E1336B600024AC600F
:102FE800EC602C610C236B61AC612846FFF714FB85
:102FF800736943F001037361736903F0010301937B
:10300800019BB36943F00403B361B36903F004039C
:103018000293029BF36943F40033F361F36903F409
:1030280000330393039B0123069304230493022391
:10303800059303230793A6F58436304604A9FEF7C3
:10304800F1FD082304930594304604A9FEF7EAFD30
:10305800144E154B33607460B4608027F760346198
:1030680074612023B361F4613046FFF771FC6E632D
:1030780075620E4E0E4B336010237360B460F760B8
:1030880034617461B461F4613046FFF761FC2E630A
:10309800756209B0F0BD00BF001002407402002044
:1030A80000440040F40200206C0002405803002055
:1030B800800002402DE9F04F89B07F4B9A6942F0B9
:1030C80004029A619A6902F004020192019A9A69CB
:1030D80042F008029A619A6902F008020292029A82
:1030E8009A6942F010029A619B6903F010030393F6
:1030F800039B0023059306934FF00208CDF81C802C
:103108004FF0200B0DEB0B0444F810BD6B4F384605
:103118002146FEF787FD4023049338462146FEF7F3
:1031280081FD4FF0800ACDF810A038462146FEF701
:1031380079FD4FF480630493614D28462146FEF7DC
:1031480071FD4FF40063049328462146FEF76AFD9B
:103158004FF48056049628462146FEF763FD0496F0
:1031680006F1804606F5784630462146FEF75AFDB8
:10317800CDF8108030462146FEF754FD4FF0010986
:10318800CDF814901023049330462146FEF74AFDEB
:10319800CDF810B030462146FEF744FD03230593D1
:1031A800CDF8109028462146FEF73CFDCDF810904A
:1031B80030462146FEF736FD08230493284621466B
:1031C800FEF730FDCDF8108028462146FEF72AFD8F
:1031D8001023049328462146FEF724FDCDF810B0AD
:1031E80028462146FEF71EFD4FF0040BCDF810B01F
:1031F80028462146FEF716FD08230493304621464B
:10320800FEF710FDCDF810B030462146FEF70AFD56
:10321800CDF814804023049328462146FEF702FD8A
:10322800CDF810A028462146FEF7FCFC4FF4807B21
:10323800CDF810B028462146FEF7F4FCCDF810A0D2
:1032480030462146FEF7EEFCCDF810903846214670
:10325800FEF7E8FCCDF8108038462146FEF7E2FC80
:10326800CDF810B030462146FEF7DCFC4FF4007371
:10327800049330462146FEF7D5FC4FF4806304934F
:1032880030462146FEF7CEFC4FF4005304933846EF
:103298002146FEF7C7FC4FF4804304933846214685
:1032A800FEF7C0FC4FF40043049338462146FEF76E
:1032B800B9FC09B0BDE8F08F00100240000C0140D5
:1032C800001001402DE9F04F99B0754B9A6942F40E
:1032D80000629A619A6902F400620192019A9A69FD
:1032E80042F400529A619B6903F400530293029BD3
:1032F8006C4EDFF8B891C6F80090002474604FF067
:103308002008C6F808804FF4FA6BC6F80CB0346190
:103318007461B4613046FEF773FA1023169317945C
:10332800304616A9FEF7A8FB60230F93109411945A
:1033380008271297139414944FF40073159330468A
:103348000FA92246FEF7B0FA30460FA90422FEF76D
:10335800ABFA30460FA93A46FEF7A6FA4FF40063D7
:1033680008934FF4806309930A94CDF82C800C9449
:103378000D940E9430460DEB0801FEF753FB4A4DB1
:10338800DFF82CA1C5F800A06C60C5F80880C5F866
:103398000CB02C616C61AC612846FEF731FACDF8AF
:1033A800588080231793284616A9FEF765FB0494D6
:1033B80018A9052341F8543D2846FEF7B5F96023BE
:1033C8000F93109411941297139414944FF400735C
:1033D800159328460FA92246FEF766FA28460FA934
:1033E8000422FEF761FA28460FA93A46FEF75CFA6E
:1033F8004FF4006308934FF4806309930A94CDF85F
:103408002C800C940D940E9428460DEB0801FEF7C1
:1034180009FBDAF8443023F40043CAF84430D9F8F9
:10342800443023F40043C9F8443028462146FEF7C7
:10343800B7FA28460421FEF7B3FA28463946FEF7BC
:10344800AFFA28462146FEF7DBFA28460421FEF7A4
:10345800D7FA28463946FEF7D3FA30462146FEF712
:103468009FFA30460421FEF79BFA30463946FEF7AC
:1034780097FA30462146FEF7C3FA30460421FEF794
:10348800BFFA30463946FEF7BBFA2B6801221A63A9
:1034980033681A6842F001021A6019B0BDE8F08F6B
:1034A8000010024068010020B4020020002C0140F6
:1034B800003401402DE9F04387B0414EB36943F42D
:1034C8000073B361B36903F400730093009B3D4C30
:1034D8003D4B23604FF48073A3600025E560656170
:1034E8004FF44023E36165604FF00508C4F810808D
:1034F8002046FEF709FF354B5A6842F480225A608D
:1035080006A94FF4C02341F8043D2046FEF7DEFA31
:10351800012304930E2202920393204602A9FEF788
:1035280073FD029502270397204602A9FEF76CFD5A
:1035380004970B27029703230393204602A9FEF75B
:1035480063FD4FF00C09CDF808900423039320463F
:1035580002A9FEF759FDCDF80890CDF80C80204659
:1035680002A9FEF751FD23689A6842F480729A60B6
:103578009A6842F001029A60736943F0010373612B
:10358800736903F001030193019B114B1D60C3F89C
:103598000480104A9A60104ADA6040F6A2221A6043
:1035A8001A6842F001021A60384629462A46FEF790
:1035B800CFFA3846FEF7FEFA07B0BDE8F08300BF41
:1035C80000100240300200200024014000000140A9
:1035D800080002404C24014060020020F0B585B08C
:1035E800274B9A6942F480629A619B6903F480636D
:1035F8000093009B234C244B23604FF48073A360FB
:103608000023E36063614FF46022E2616360052692
:1036180026612046FEF778FE012303930F220192CC
:103628000293204601A9FEF7EFFC0D230193022522
:103638000295204601A9FEF7E7FC03950A230193AA
:1036480003270297204601A9FEF7DEFC0195042313
:10365800029320460DEB0301FEF7D6FC0197029674
:10366800204601A9FEF7D0FC23689A6842F48072CC
:103678009A609A6842F001029A6005B0F0BD00BFF6
:1036880000100240E40000200028014030B597B047
:1036980002250C95012310931023119313950024F0
:1036A80014944FF4601315930CA8FDF7FFFB0F2338
:1036B8000793089509944FF480630A930B9407A81D
:1036C8002946FDF735FE01954FF44043039301A8C1
:1036D800FEF7BEFBFDF7FCFE084BA3FB00208009AC
:1036E800FEF774FA0420FEF787FA4FF0FF30214600
:1036F8002246FEF72DFA17B030BD00BFD34D621039
:103708002DE9F04782B0FEF74BFC8B4CA36943F0E0
:103718000103A361A36903F001030193019B032043
:10372800FEF704FA6FF00B0000210A46FEF710FAC4
:103738006FF00A0000210A46FEF70AFA6FF0090046
:1037480000210A46FEF704FA6FF0040000210A4639
:10375800FEF7FEF96FF0030000210A46FEF7F8F9BC
:103768006FF0010000210A46FEF7F2F94FF0FF3032
:1037780000210A46FEF7ECF9FFF788FF636923F09A
:1037880001036361FFF796FCFFF79CFDFFF792FECC
:10379800FFF724FFFFF7B4FBFFF7FEFB6748202184
:1037A8000122FEF74BFB6648FEF70AFD6548FEF767
:1037B80007FD0824644E642504E034702846FEF7AB
:1037C8000FFC013C002CF8DA00245F4B1C705F48AA
:1037D80004210122FEF732FB01225D4B1A705D487D
:1037E80000F084FC20225C4B5A605C490C705C48F9
:1037F800FEF78AFF584CDFF84491DFF88081594F73
:10380800DFF87CA10220FEF7EBFB544B1B782BB9A9
:103818001DE065683046FEF7E3FB01E00025012660
:1038280063689D42F5D14E4E3046FFF73BF80A20BB
:10383800FEF7D6FB494D0020297800F01DFC002337
:103848002B702022626030462946FEF75DFF464B0A
:103858001B68042B04D80023444A1360444A1360AD
:1038680000F010FC48460221FEF7E0FAF8B1002209
:10387800374B1A70314D022428462146FEF7D6FAF6
:103888000028F9D10024304B1C703A4B1C702E4E86
:10389800642504E034702846FEF7A2FB0134072CA7
:1038A800F8DD264820210022FEF7C8FAFEE7324B51
:1038B8001D6828464146FDF7BBFA58B128463946E7
:1038C800FDF7D4FA30B105221F4B1A700822294B94
:1038D8001A7097E728463946FDF7AAFA58B12846DC
:1038E8005146FDF7C3FA30B10522174B1A70012271
:1038F800204B1A7086E728465146FDF799FAA0B181
:1039080000241C4B1C70124B1C700F4E642504E0E5
:1039180034702846FEF764FB0134072CF8DD0748AD
:1039280020210022FEF78AFAFEE70023064A1370D8
:10393800104A137066E700BF0010024000080140FB
:1039480030020020E4000020C4000020000C0140E8
:10395800BC000020884A00086C00024038030020A0
:103968007402002000000442A0000020C8000020CB
:10397800C0000020A8000020140000200000104211
:103988000000F841000000002DE9F8430222844BB2
:103998005A60844B1B68B3F57A7F3BDA0133814A5E
:1039A8001360814B998889B2804A1068014401EB01
:1039B800D17149101160D98889B27D4A10680144D3
:1039C80001EBD17149101160198889B2794A1068E0
:1039D800014401EBD17149101160598889B2764AC6
:1039E8001068014401EBD17149101160598989B2FD
:1039F800724A1068014401EBD171491011601A89AB
:103A080092B26F4B19680A4402EBD27252101A60D4
:103A1800BDE8F8836B4B1E886B4BA3FB06135B0951
:103A2800642202FB13639BB223BB684F3868FCF720
:103A380065FD53A3D3E90023FCF7B4FD04460D4606
:103A4800594B988980B2FDF74DF9FCF757FD4EA305
:103A5800D3E90023FCF7A6FD4DA3D3E90023FCF727
:103A6800A1FD02460B4620462946FCF7E9FBFDF777
:103A780033F838604C4B588980B2504B1C68001B97
:103A8800FCF72AFD44A3D3E90023FCF78BFD0022B1
:103A98000023FCF7F9FF80B1434B588980B2001B23
:103AA800FCF71AFD3CA3D3E90023FCF77BFD0022B9
:103AB800474BFCF7E9FFB8B90FE03B4B588980B298
:103AC800001BFCF709FD34A3D3E90023FCF76AFDCA
:103AD8000022404BFCF7F6FF30B93F4B1B68052B23
:103AE80002D83E4B1B782BB93D4B5A6C22F400424E
:103AF8005A6404E03A4B5A6C42F400425A642A4B26
:103B0800188980B22E4B1C68001BFCF7E5FC22A329
:103B1800D3E90023FCF746FD00220023FCF7B4FF9D
:103B280080B1214B188980B2001BFCF7D5FC1AA381
:103B3800D3E90023FCF736FD0022254BFCF7A4FF50
:103B4800C0B90FE0184B188980B2001BFCF7C4FC01
:103B580011A3D3E90023FCF725FD00221D4BFCF738
:103B6800B1FF38B91C4B1B68052B03D81B4B1B78BE
:103B7800002B39D11B4B5A6C22F400425A6438E0AE
:103B88002B8716D9CEF7EF3FF5E4E827181C9B3FA3
:103B9800FCA9F1D24D62503F7B14AE47E17A943FC5
:103BA80000000240A400002060020020080000205D
:103BB80004000020100000200C0000201800002045
:103BC8001C000020CC0000201F85EB5114000020B1
:103BD80000002EC000002E40A0000020BC000020E5
:103BE80000340140002C01408E4B5A6C42F40042D4
:103BF8005A648D4B9A6812F0200F14BF00220122DC
:103C0800996811F0400F14BF002101219B6813F03F
:103C1800800F14BF00200120844B9C6814F4806F2F
:103C280014BF002501259C6814F4006F14BF0027F9
:103C380001279B6813F4805F01EB400302EB430309
:103C48007B4CE25C7B4B1A601A6802F102021A6034
:103C58001868794981FB0082A2EBE07202EB42020C
:103C68004FEA4202C2EB00021A600CBF0222002295
:103C78003A4405EB4202A05C704A106010680230BA
:103C88001060106881FB0091A1EBE07101EB41012C
:103C98004900411A11601B68694A908880B26949D5
:103CA8000968441AD18889B2674802688A1A052BBC
:103CB80018D8DFE803F003070A0D1013A21A634BA4
:103CC8001A6012E0614B1C600FE0604B1C600CE056
:103CD8005E4B1A6009E05D4B1A6006E0121B5B4BF5
:103CE8001A6002E00022594B1A600136B6B2584BEE
:103CF8001E80584B1B78ABB15749A1FB0621090B15
:103D0800564A1278013291FBF2F002FB10124AB9BE
:103D180096FBF3F203FB12664EB951481021FEF7E9
:103D280093F804E04E4810210022FEF787F84D4B27
:103D38001A68404B1B68052B1AD8DFE803F0030705
:103D48000B0E111515465242002614E05642154630
:103D5800002210E0564200250DE0554200260AE0F8
:103D680055421646002206E016465242002502E059
:103D78000022154616463C4B1868304B1B68052B2D
:103D88001ED8DFE803F003080D1115190746404255
:103D98004FF0000C17E0C0F1000C0746002012E0BD
:103DA800C0F1000C00270EE047424FF0000C0AE07B
:103DB80047428446002006E084464042002702E04D
:103DC800002007468446274B1968002950DD274BF9
:103DD8001968184B1C680534174B83FB0493A3EB35
:103DE800E47303EB43035B00E31A052B6FD8DFE8AA
:103DF80003F003070B0E11150B46494200246BE034
:103E08004C420B46002167E04C42002364E04B42E1
:103E1800002461E04B420C4600215DE00C4649421B
:103E2800002359E0002C0140000C01400010014023
:103E3800904A0008B0000020ABAAAA2AB8000020C7
:103E4800600200200800002004000020D0000020AC
:103E5800CC000020C40000205917B7D1A8000020CA
:103E680000080140C0000020C8000020AC0000206D
:103E7800784B19684B42784C246804F10108774C58
:103E880084FB0894A4EBE87404EB44046400C4EBDA
:103E98000804052C04D8DFE804F01E070A0E1317DF
:103EA80000210B460C4617E00C46002114E00C4696
:103EB8001946002310E01C460B46214600240BE05F
:103EC8001C460B46002107E01C46002304E00021A5
:103ED8000B460C4600E0002426441D4401EB020872
:103EE8005F4B1B68002B2ADD5E4B1A685E4B1C6813
:103EF80005345A4B83FB0493A3EBE47303EB4303AE
:103F08005B00E31A052B47D8DFE803F003070B0E25
:103F1800111513465242002143E051421346002234
:103F28003FE0514200233CE05342002139E0534234
:103F38001146002235E011465242002331E0494B38
:103F48001A68534248490C680134444981FB04917A
:103F5800A1EBE47101EB41014900611A052904D87C
:103F6800DFE801F01E070A0E131700221346114658
:103F780017E01146002214E011461A46002310E00B
:103F8800194613460A4600210BE01946134600223B
:103F980007E01946002304E000221346114600E01A
:103FA800002161443B44024406F57A7640F2C6702B
:103FB800864203DC0A2EB8BF0A2601E040F2C67624
:103FC8002A48466305F57A7540F2C670854203DCD7
:103FD8000A2DB8BF0A2501E040F2C675234885635B
:103FE80008F57A7440F2C670844203DC0A2CB8BF24
:103FF8000A2401E040F2C6741C48C46301F57A71D2
:1040080040F2C670814203DC0A29B8BF0A2101E0E8
:1040180040F2C6711648416303F57A7340F2C671DF
:104028008B4203DC0A2BB8BF0A2301E040F2C673B7
:104038000F498B6302F57A7240F2C6739A4203DC29
:104048000A2AB8BF0A2201E040F2C672084BDA63B6
:10405800BDE8F883AC000020B0000020ABAAAA2A73
:10406800C8000020B4000020B8000020003401403F
:10407800002C0140AFF30080014B23F8101070476B
:104088001C04002030B583B0144C20460021642263
:1040980000F0AEF812490A884B888888C98800B2AF
:1040A800009009B2019120460E4912B21BB200F0ED
:1040B800A7F80D4B5B6873B90B4C236823F0010319
:1040C8002360064D284600F0BFF86060E56023686D
:1040D80043F00103236003B030BD00BFB8030020E4
:1040E8001C040020984A00081C00024010B5044631
:1040F80000F0AAF882B202482146FEF7BFFA10BDC6
:1041080074020020704700BFFEE700BFFEE700BF53
:10411800FEE700BFFEE700BF704700BF704700BF63
:10412800704700BF08B5FDF74DFFFDF777FD08BDE7
:1041380008B50248FEF74CFD08BD00BFF402002098
:1041480008B50248FEF744FD08BD00BF580300202B
:10415800002100F004B80D4B5B58435004310C4863
:104168000C4B42189A42FFF4F6AF0B4A00F003B822
:10417800002342F8043B094B9A42FFF4F9AFFEF7DB
:1041880099FE00F00FF8FFF7BBFA7047E84A0008FD
:10419800000000208400002084000020300400205B
:1041A800FFF7FEBF70B50E4B0E4D0024ED1AAD1093
:1041B8001E46AC4204D056F8242090470134F8E754
:1041C80000F03CFC084D094B0024ED1AAD101E46CA
:1041D800AC4204D056F8242090470134F8E770BD6B
:1041E800E04A0008E04A0008E44A0008E04A0008FB
:1041F80002440346934202D003F8011BFAE77047D2
:104208000EB400B54FF402719CB0ADF814106FF005
:104218000041049107914FF6FF711DABADF81610E0
:10422800084953F8042B02900690086802A90193E4
:1042380000F06EF8029B00221A701CB05DF804EBC7
:1042480003B0704780000020034613F8012B002AB2
:10425800FBD1181A013870472DE9F0478D6881465F
:10426800AB420C4692461F4643D38B8913F4906F9A
:104278003DD0266809690222C1EB0608666906EB8B
:10428800460696FBF2F608F101023A44964238BF18
:1042980016465B050FD5314600F022FB054698B15E
:1042A8002169424600F0B4FAA38923F4906343F0ED
:1042B8008003A38113E0324600F066FB054670B91F
:1042C8004846216900F0C8FA0C23C9F80030A389D0
:1042D8004FF0FF3043F04003A381BDE8F08725612C
:1042E80066614544C8EB06062560A6603D46AF42B8
:1042F80000D23D462A462068514600F092FAA3684B
:1043080000205B1BA36023681D442560BDE8F0877F
:104318002DE9F0439DB003938B8907461C060D4693
:1043280016460CD50B6953B9402100F0D9FA28601C
:10433800286110B90C233B60C7E040236B61002360
:10434800099320238DF8293030238DF82A303346FD
:104358001C4613F8012B1AB9B4EB06090FD002E07A
:10436800252AF5D1F8E73846294632464B46FFF765
:1043780073FF013000F0A480099B4B440993237814
:10438800002B00F09D8000234FF0FF320493079329
:10439800059206938DF853301A9304F101094D4E96
:1043A8004C4630462178052200F024FA09F101092B
:1043B800049B28B1861B0120B04003430493EEE719
:1043C800D90644BF20228DF853201A0744BF2B2258
:1043D8008DF8532022782A2A02D0079B21460EE026
:1043E800039A111D12680391002A01DB079204E069
:1043F800524243F002030792049301340AE00C4648
:1044080022780131303A092A03D80A2000FB032315
:10441800F5E7079323782E2B19D163782A2B09D136
:10442800039B02341A1D1B680392002BB8BF4FF080
:10443800FF330BE0611C00230C4622780131303A2F
:10444800092A03D80A2000FB0323F5E70593224E27
:1044580021783046032200F0CDF930B1861B402088
:10446800B040049B01340343049321781B4806227F
:10447800661C8DF8281000F0BDF988B1184B33B9C7
:10448800039B073323F007030833039314E003ABBC
:104498000093384604A92A46124BAFF3008007E080
:1044A80003AB0093384604A92A460E4B00F08EF859
:1044B800B0F1FF3F804603D0099B4344099346E788
:1044C800AB895B0601D4099801E04FF0FF301DB0BD
:1044D800BDE8F083AA4A0008B04A0008B44A0008B8
:1044E80000000000614200082DE9F84315461F4608
:1044F8008A680B6906469A42A8BF13462B6091F852
:1045080043200C46DDF820800AB101332B60236874
:10451800990602D52B6802332B60236813F006092D
:104528001DD094F843302268003318BF0123920647
:104538001FD5E118302081F843005A1C94F8451023
:104548002244023382F8431013E03046394604F11E
:1045580019020123C047013007D009F10109E268B7
:104568002B68D31A9945F0DBDBE74FF0FF30BDE845
:10457800F8833046394604F14302C0470130F4D08D
:1045880023682A6803F00603E168042B08BFC2EB1E
:1045980001052369A2680CBF25EAE57500259A4242
:1045A800C4BFC3EB0203ED184FF00009A9450ADAAE
:1045B8003046394604F11A020123C0470130D4D0ED
:1045C80009F10109F2E70020BDE8F8832DE9FF476A
:1045D8000E7E80466E2E0C4691469A460C9D01F141
:1045E800430000F0A58011D8632E22D009D8002EF0
:1045F80000F0AF80582E40F0BF8081F845607B4ABC
:104608004FE0642E1ED0692E1CD0B5E0732E00F04A
:10461800A48009D86F2E2BD0702E40F0AD800B6887
:1046280043F020030B6038E0752E21D0782E34D06B
:10463800A2E02B6801F142071A1D1B682A6081F865
:1046480042309DE022682B6812F0800F03D01A1DBB
:104658002A601D6805E05106F9D51A1D2A60B3F9CC
:104668000050002D39DA2D236D4284F8433034E0B0
:1046780022682B6812F0800F03D01A1D2A601D686B
:1046880004E05206F9D51A1D2A601D88237E574A70
:104698006F2B14BF0A2308231BE07823544A84F89D
:1046A80045302368296813F0800F01F104062E6055
:1046B80001D00D6802E05F06FBD50D88DE0744BF18
:1046C80043F0200323601DB9236823F020032360EF
:1046D8001023002184F8431001E0444A0A23666845
:1046E800002EA66003DB216821F00401216005B9D2
:1046F8006EB104F14201B5FBF3F603FB1655555DA7
:104708000F4601F801593546002EF4D100E007465E
:10471800082B0AD12368DD0707D5626823699A4206
:1047280003DC302307F8013C013FC01B20612CE06B
:1047380009682B6811F0800F626904D0191D29607F
:104748001B681A6005E04906F8D5191D29601B6821
:104758001A8000232361074617E02B681A1D2A6078
:104768001F683846FFF770FD63682061984288BF6C
:1047780023612369636005E004F1420784F842601D
:1047880001232361002384F84330CDF800A040467C
:10479800214603AA4B46FFF7A7FE013002D14FF08E
:1047A800FF301FE0404649463A462369D04701306A
:1047B800F5D023689B0705D4E068039B9842B8BFEF
:1047C80018460FE00025E268039BD31A9D42F3DAEE
:1047D8004046494604F119020123D0470130DED092
:1047E8000135F0E704B0BDE8F08700BFBB4A000818
:1047F800CC4A000810B5C9B202449042034605D01D
:104808001C7801308C42F8D1184610BD002010BD2C
:1048180010B50023934203D0CC5CC4540133F9E7AC
:1048280010BD814270B501D300230EE08C18A04260
:10483800FAD28518134613F1FF3305D3514266188F
:10484800F65C2944CE54F6E770BD934203D0CC5CA5
:10485800C4540133F9E770BD30B500293CD051F894
:10486800042C0B1F1D49002AB8BF9B180A680C4668
:1048780012B95A600B6030BD93420DD219685818AE
:10488800904203D15A581144426819605A60236013
:1048980030BD994203D80A4651680029F9D11468F5
:1048A80015199D420AD11B682344D0188842136009
:1048B80012D10868034413604B680CE002D90C233A
:1048C800036030BD18681C188C4203D10C68496815
:1048D800204418605960536030BD00BFD8000020E4
:1048E80070B5CD1C25F0030508350C2D38BF0C25F7
:1048F800002D06463FDB8D423DD3214B1C681846F0
:104908002146A1B10B685B1B0ED40B2B03D90B609E
:10491800CC18CD501FE08C4202D1626802601AE0C8
:104928004B6863600C4616E00C464968E9E7154C8D
:1049380023681BB9304600F04DF820602946304600
:1049480000F048F8431C014615D0C41C24F00304A9
:1049580084420AD1256004F10B00231D20F00700D2
:10496800C31A0BD05A42E25070BD3046611A00F0AB
:1049780031F80130EED10C233360002070BD00BF48
:10498800D8000020D4000020F8B5064614460D468D
:1049980021B91146BDE8F840FFF7A2BF1AB9FFF7E1
:1049A8005BFF2046F8BD00F025F8A0420ED2304645
:1049B8002146FFF795FF074650B129462246FFF7E3
:1049C80027FF30462946FFF747FF01E02846F8BD94
:1049D8003846F8BD38B5064C00230546084623601E
:1049E80000F012F8431C02D1236803B12B6038BDD4
:1049F8002C04002051F8040C002802DA04390B5862
:104A08001844043870470000094A136863B1184411
:104A18006946884202D8106018467047054B0C2238
:104A28001A604FF0FF307047034B1360EFE700BF89
:104A3800DC0000202C04002030040020F8B500BF62
:104A4800F8BC08BC9E467047F8B500BFF8BC08BC67
:044A58009E467047BF
:104A5C0002030405060708090A0B0C0D0E0F1010B3
:104A6C00010200000000000000000000010203042D
:104A7C000607080900000000010203046F74746546
:104A8C00720A0D00000002010405030025693B2594
:104A9C00693B25693B25690A0D0000004300232D65
:104AAC00302B2000686C4C0065666745464700302B
:104ABC003132333435363738394142434445460078
:104ACC003031323334353637383961626364656678
:044ADC0000000000D6
:044AE0000D020008BB
:044AE400E9010008DC
:104AE80000A24A04D0070000D0070000D007000049
:104AF800D007000000002042D0070000D0070000C7
:104B0800000000000000000000000000000000009D
:104B1800000000000000000000000000000000008D
:104B2800A84A000800000000000000000000000083
:104B3800000000000000000000000000000000006D
:104B4800000000000000000000000000000000005D
:104B5800000000000000000000000000000000004D
:044B68002000002009
:040000050800415955
:00000001FF
